:020000040000fa
:080000000002040000000000f2
:020000040000fa
:10000800cc020000cc020000cc020000cc020000b0
:10001800cc020000cc020000cc020000cc020000a0
:10002800cc020000cc020000cc020000cc02000090
:10003800cc020000cc020000cc020000cc02000080
:10004800cc020000cc020000cc020000cc02000070
:10005800cc020000a8080000cc020000cc0200007e
:10006800cc020000cc020000cc020000cc02000050
:10007800cc020000cc020000cc020000cc02000040
:10008800cc020000cc020000cc020000cc02000030
:10009800cc020000cc0200000a0e0000cc020000d6
:1000a800cc020000cc020000cc020000cc02000010
:1000b800cc020000cc020000cc020000cc02000000
:1000c800cc020000cc020000cc020000cc020000f0
:1000d800cc020000cc020000cc020000cc020000e0
:1000e800cc020000cc020000cc020000cc020000d0
:1000f800cc020000cc020000cc020000cc020000c0
:10010800cc020000cc020000cc020000cc020000af
:10011800cc020000cc020000cc020000cc0200009f
:10012800cc020000cc020000cc020000cc0200008f
:10013800cc020000cc020000cc020000cc0200007f
:10014800cc020000cc020000cc020000cc0200006f
:10015800cc020000cc020000cc020000cc0200005f
:10016800cc020000cc020000cc020000cc0200004f
:10017800cc020000cc020000cc020000cc0200003f
:10018800cc020000cc020000cc020000cc0200002f
:10019800cc020000cc020000cc020000cc0200001f
:1001a800cc020000cc020000cc020000cc0200000f
:1001b800cc020000cc020000cc020000cc020000ff
:1001c800cc020000cc020000cc020000cc020000ef
:1001d800cc020000cc020000cc020000cc020000df
:1001e800cc020000cc020000cc020000cc020000cf
:1001f800cc020000cc020000cc020000cc020000bf
:10020800cc020000cc020000cc020000cc020000ae
:10021800cc020000cc020000cc020000cc0200009e
:10022800cc020000cc020000cc020000cc0200008e
:10023800cc020000cc020000cc020000cc0200007e
:10024800cc020000cc020000cc020000cc0200006e
:10025800cc020000cc020000cc020000cc0200005e
:10026800cc020000cc020000cc020000cc0200004e
:0c027800cc020000cc020000cc02000010
:020000040000fa
:100400000ff021000eff28000e0188000000000000
:1004100000012000200288000c000700000a2100d3
:10042000010020000f000700000020000000e00095
:10043000020032000000020000000000e0030200a1
:10044000000000000040da000000fe000002200072
:100450000000e0000200320000202000900188002f
:1004600000000600a1028800800078000000eb0078
:100470001a003700e280400054a0b4009101ba0095
:10048000e280400054a0b4009102ba00e280400033
:1004900054a0b4000002eb00472bde00f507b200c9
:1004a000a6018800602ce10008003a000049eb003a
:1004b0000201e800020039003420ec0002f0a00044
:1004c0008301e900f9ff3e00040037006128e100e4
:1004d000010032000082eb00040007001101ba00a5
:1004e0000200e000e3ff3a000000060004d0a30091
:1004f000e20f49001c003900810278003549ba003a
:100500000201e800020039003420ec0002f0a000f3
:100510008301e9000f0032002549ba000201e8001a
:10052000020039003420ec0002f0a0008301e90051
:10053000080032000400e0000600320015c9ba00cd
:100540000201e800020039003420ec0002f0a000b3
:100550008301e9008180e80054a0b4000300e000ba
:10056000e2ff3a00000006009102ba000559780047
:100570008301e900f7ff3200c82ade000559780040
:100580008301e900f3ff32000400e000f1ff3200d4
:1005900011d9ba00eeff37000040da000000fe007b
:1005a0000000fa00001020003202b6000000e9004e
:1005b0004f00de000080fa00000006000000fa0094
:1005c00031e2a90023c8a90023e8a90003c8a900b3
:1005d00003e8a9000080fa00000006000000fa000d
:1005e00003c8a90003e8a900e7026000c82add00eb
:1005f000f48f2f007642800006026200050272002e
:1006000074428800800278000507b200c82add0025
:10061000f4ff2800764280000602620005027200a4
:1006200074428800e8026000c32ade00e1826200b2
:10063000ce2add00f4ff2b00164180000602620086
:1006400005027200144188000008b2004700de0075
:10065000610060004f00dd00f4ff270015418000bd
:100660000502620000027200144188000080fa0056
:10067000000006000000fa00901180006140600058
:100680000080fa00000006000000fa00c211880095
:1006900080118800911188000080fa000000060097
:1006a0000000fa008411800066026200e60f52002a
:1006b0000c003a00030037003322ab00feff3a0083
:1006c000a5118800b0027800e08f5200faff3a00ce
:1006d000070037003322ab00feff3a008502fb0023
:1006e000a5118800b0427800e0cf5200f9ff3a002f
:1006f0000080fa00000006000000fa00841180006b
:1007000066026200e60f520002003a00b01180005b
:1007100002003700b0118000f00fb2000080fa0034
:10072000000006000000fa008411800066026200ea
:10073000e60f520001003200f00fb200a011880055
:100740000080fa000000060000f0a7000000ea00a8
:1007500000f0a7000080ea00000006000000fa0098
:100760000002780002003700015a78000201e90017
:10077000e00f5100fcff3a000080fa000000060084
:020000040000fa
:1007800052540000444d0000002b00002452000091
:10079000544400004d2300001b860000002b000085
:1007a000244f00004b2300004c080000002d0000e7
:1007b0002445000001230000d36a0000000000006f
:020000040000fa
:1007c0000000fa0044042000343a8800243a8000f3
:1007d0000460a1000470a100243a8800253a80003a
:1007e00004fe2f0004826200243a880036002000b4
:1007f00084072000a509200037742000844b78006e
:10080000854b7800864b7800160020006404200099
:100810007505200027742000844b7800854b7800f4
:10082000864b780000000000153a80000400270085
:100830008482620004002300848f5200faff3a0091
:1008400000000000153a80000402200004826200cb
:10085000e00f5200fbff320076030700c0d12100f9
:1008600055070700220807000d030700fb070700d4
:100870000002eb0024e68800c23ca900c21ca900cb
:10088000c4fca900c41ca8000002eb00a4ea880074
:1008900021a8a9007902070000427800e04f520029
:1008a00005003200c43ca9000002eb0004007800ff
:1008b0000080fa00000006006022b80034e68800dc
:1008c00045e688006022b800d4e68800e5e68800a6
:1008d0006022b80074e7880085e7880001a8a900b5
:1008e00021a8a80024e6800062026200e00f520006
:1008f00008003a00010037007003070014e680008a
:1009000062026200e00f5200fbff32005b02070050
:10091000c43ca800c4dca8000700370000000000a9
:100920000500370000000000030037000000000051
:10093000010037000000000060030700b5ea8000f6
:10094000f47c2000848f5200f4ff360024e68000ff
:1009500062026200e00f520001003a0031003700ed
:1009600014e6800062026200e00f520004003a00c8
:10097000c43ca9000002eb00a4ea8800290037006b
:10098000157380000404200004826200e00f52000e
:10099000e4ff3a00ec020700157380000404200015
:1009a00004826200e00f520007003a0025e6800052
:1009b0000402200004826200e00f5200dbff3a00d4
:1009c000c4bca800dcff370025e68000040220003c
:1009d00004826200e00f5200d6ff3200c4bca900be
:1009e00025e68000040820000482620004f0a700cd
:1009f0000402ea000402e9004f22de00044278000b
:100a00000482fb00610262004722dd0026e68000ce
:100a1000f5f72f00850263000482720024e6880047
:100a2000c5ff370096ff37000000fa0024e680007b
:100a300061026200e00f52005a00320025e6800099
:100a40000404200004826200e00f52002c003200f7
:100a5000c4dca9000002eb00048188000002eb0066
:100a6000f48088000002eb00e48088000002eb00c4
:100a700094ea88006022b80074ea880085ea880059
:100a80000002eb00e4e888000002eb00f4e88800d4
:100a90000002eb0004e988000002eb0014e9880082
:100aa0000002eb0034e988000002eb0054e9880002
:100ab0000002eb0064e988000002eb0074e98800a2
:100ac0000002eb0084e988000002eb0094e9880052
:100ad0000002eb00a4e988000002eb00b4e9880002
:100ae0000002eb00e4e988000002eb00f4e9880072
:100af0000002eb0044ea88000002eb0054ea8800a0
:100b0000c4e8200004818800e4ea8000e00f52007d
:100b100002003a0054ea8000f4e7880084818000f3
:100b2000b4e68800f4808000a4e6880060cc210050
:100b300018080700c4e68000a4818800c5e680008c
:100b4000c4e68000850078000400780023050700d3
:100b500000027800f4ea8800f4ea800045382700b3
:100b600004825200040078002b0507000002780080
:100b700024e7880024e780000402ea0034e78800c4
:100b80009481800054e788000481800044e7880055
:100b9000a0cd2100ff07070064e78000b481880032
:100ba00091003700c4e880000402e800c4e888002f
:100bb000c4e88000e50f520026003a00b4e8800047
:100bc00041e12200040078000405070000027800db
:100bd000c52f240005024200d4e8880025e68000e5
:100be0000408200004826200e00f52000800320076
:100bf000e5808000d4e88000848f520004003c002f
:100c0000e480800065024200e48088000f00370025
:100c1000e5808000d6e88000240020001100090053
:100c20000403d80000027800848f520004003c00c6
:100c3000e480800065024200e48088000300370001
:100c4000e480800065025200e48088000002eb002e
:100c5000c4e8880025e680000404200004826200c5
:100c6000e00f52000e003200c4dca90004818000b5
:100c7000cfa2de00c022dd000400200074e788005f
:100c800085e788000002eb0094ea88006022b80043
:100c900074ea880085ea8800b4aa2000e48088000d
:100ca000e4ea8000e00f520008003a0054ea8000b5
:100cb000f4e78800e4808000e4e78800e0ce2100cb
:100cc000b407070004e880000481880024e680005f
:100cd00064026200e00f520002003200e4808000f3
:100ce00004818800e48080000400780096fe0700fc
:100cf0000002780004007800a006070000027800d7
:100d0000f480880084818000b4e68800f48080004c
:100d1000a4e6880060cc21009e07070024e680003e
:100d200068026200e00f520006003200c4e6800054
:100d3000040078001402070000027800a4818800f3
:100d400002003700c4e68000a4818800a5818000ed
:100d5000a481800085007800040078009f040700cb
:100d600000027800f4ea8800f4ea800045382700a1
:100d70000482520004007800a704070000027800f3
:100d800024e7880024e780000402ea0034e78800b2
:100d90009481800054e788000481800044e7880043
:100da000a0cd21007b07070024e6800068026200d6
:100db000e00f52000600320064e780000400780073
:100dc000f101070000027800b481880002003700ba
:100dd00064e78000b481880064ea8000e00f52007c
:100de00001003d00c43ca9000080fa00000006009c
:100df0000200fa00000f78004400f80044e0a80068
:100e000044c0a8004480a800f203070014040700af
:100e10001e027800540a9000040078004afe070081
:100e2000000278009e027800f50a9000850f5200bb
:100e300002003d00190407000e0037001e02780072
:100e4000540a9000e00f5200050034001e027800a2
:100e5000e40a90001e027800350298000500370071
:100e60001e027800640a90008402ea001e027800e4
:100e7000350298001e0278001412900004007800d9
:100e800031fe0700000278009e027800f50a90000b
:100e9000850f520002003d00090407000e003700d4
:100ea0001e02780014129000e00f5200050034007a
:100eb0001e027800e40a90001e027800250a9800bd
:100ec000050037001e027800640a90008402ea00e0
:100ed0001e027800250a9800020407001e0278000e
:100ee000940a90001e027800240290000402ea0096
:100ef0008500780004007800c8060700000278002a
:100f00009e027800e41298001e027800e41290001d
:100f1000c4ea800084825200d4ea80000482420045
:100f2000d4ea88001e02780064129000c4ea8800a7
:100f3000e4ea80000402e800e4ea8800e4ea8000d1
:100f4000f40f520007003a00d5ea80001e02780034
:100f5000751298000002eb00e4ea88000002eb0042
:100f6000d4ea8800a4ea80000402e800a4ea880029
:100f7000a4ea8000e50f520002003a000002eb00f4
:100f8000a4ea8800080407001e027800041a9000f2
:100f9000b14121000400780010040700000278002d
:100fa0009e027800b41298001e027800b4129000dd
:100fb0001e027800251298001e027800a4129000ec
:100fc000c41a2000848f520006003c001e027800e4
:100fd000d51a2000251298001e027800d51a20008c
:100fe000351298001e027800050024005512980062
:100ff0001e027800e41290001e0278005412900045
:10100000848242001e027800651298004400f900b4
:101010000080fa00000006000000fa0064818000f1
:10102000a4e9880074818000e4e98800c48180001c
:10103000e4e88800d481800054e98800c0d1210010
:101040006bff070024e6800061026200e00f52009f
:10105000260032000580800094ea8000848f5200d0
:101060000400360094ea80000402e80094ea880054
:101070001500370014808000258080000403be0026
:1010800074ea800085ea8000840f5300858f5b003e
:101090000700360074ea800085ea80005409b00039
:1010a0000580b00074ea880085ea880006003700f1
:1010b000c4dca800c41ca9001581800044ea80009b
:1010c0000482520024eb88001681800074ea8000bc
:1010d00085ea8000402ade00050020000402780036
:1010e00004024300148188001700370045ea80009d
:1010f00024eb8000048242001481880024eb8000ed
:101100000400780090fd070000027800e90f52000b
:101110000d003400a4ea8000e00f52000a003a00fb
:1011200024eb8000e00f520004003d0024eb80001f
:101130006902420024eb88000300370024eb8000a2
:101140006902520024eb88000080fa0000000600cb
:101150003600f800809fbe00829fbe00849fbe00c4
:10116000869fbe000000fa0001a8a900b4ea800032
:101170000402e800b4ea880024e68000620262000b
:10118000e00f520008003200b3060700a2ff07007c
:101190009d06070024fe070057060700ce0607003d
:1011a000bf0607001705070014e680006102620011
:1011b000e00f52002a00320094e880000402e800a8
:1011c00094e8880095e88000a4e88000848f5200ad
:1011d00023003a000002eb0094e8880034e8800025
:1011e00045818000050a78000482e80034e8880020
:1011f00044e8800055818000050a78000482e800f8
:1012000044e8880054e8800095818000050a780051
:101210000482e80054e8880064e88000858180004a
:10122000050a78000482e80064e8880065e8800028
:1012300074e88000848f52000900360024042100e5
:1012400034e888002436210044e88800246821001e
:1012500054e88800249a210064e88800c21ca90090
:101260000080fa004f03be004f02be004f01be00d7
:101270004f00be003600f900004006000000fa00f2
:1012800044e0a90094882800850820001480880084
:1012900025808800843821000480880044e12200f1
:1012a00014e888004401210005002400050a7800a4
:1012b000440121000500240025029800640021005b
:1012c000c5da2000050a7800c4da200044618800ed
:1012d000c4da200044628800c4da20004463880035
:1012e00094b5210024608800442020000461880017
:1012f0004420200004628800442020000463880009
:1013000004002c001461880004002c001462880082
:1013100004002c00146388000002eb005461880074
:101320000002eb00546288000002eb005463880066
:10133000c408200064618800c4082000646288003a
:10134000c408200064638800340020002461880001
:1013500034002000246288003400200024638800c8
:101360000002eb00146088007404200034618800df
:101370007404200034628800740420003463880000
:10138000744380000480a1000490a10004a0a00088
:10139000744388007443800004c0a10004d0a100fd
:1013a00004e0a00074438800844380000400a1008e
:1013b0000410a1000420a000844388000bc8a900e9
:1013c0002bc8a90004002800046088000002eb007c
:1013d00034608800041980000480a0000490a000fc
:1013e00004198800041980000450a0000460a000c3
:1013f0000470a100041988002083a9002063a800bc
:101400002043a8000002eb00141988001419800082
:101410000480a1000490a000141988000002eb00d1
:101420002419880064c0b3000440780024e3b700a6
:101430000002eb00441988004519800004fe2f00cb
:1014400004826200d400b300441988002603a90076
:101450000002eb008419880021e3a8003a0007008d
:10146000d40f200024618800d40f2000246288005b
:10147000d40f2000246388001418800084027800b0
:101480002418800085007800040078000106070019
:101490000042eb00044078000080fa0000000600e3
:1014a0000000fa006466200054e68800440a200028
:1014b00064e68800f4ff270074e68800f4ff270044
:1014c00084e6880084e680000402ea0094e688004e
:1014d00060cc2100ad05070064662000f4e68800ba
:1014e000440a200004e78800f4ff270014e788007e
:1014f000f4ff270024e7880024e780000402ea00c4
:1015000034e78800a0cd2100a00507006466200014
:1015100094e78800440a2000a4e78800f4ff27002d
:10152000b4e7880024332700c4e78800c4e78000bc
:101530000402ea00d4e78800e0ce2100930507000a
:101540000080fa00000006000400fa006022b800e3
:10155000048fbe00040037001400200005002000a6
:101560001e0f42005e974a00f46928001500200013
:101570001e03be00840f5300858f5b00f6ff34000e
:101580000080fa00000006000400fa00100798002e
:1015900015eb800004eb8000848f52000f003400b4
:1015a00005eb800016eb800004eb80000402530082
:1015b000850078000400780091020700000278009e
:1015c0009e0090000400780084020700000278006a
:1015d0009e029000050f42001200370005eb8000cc
:1015e00014eb8000848f52000c00340005eb800067
:1015f00014eb80008500780004007800800207006a
:10160000000278009e00900004007800730207003a
:1016100000027800040f7800020037001e029000dc
:10162000040f78001e027800040078000080fa00a1
:10163000000006000000fa00e0fb070090f22f0017
:10164000e6fb070004402c0094ec8800d4752900c8
:10165000a4ec8800a5ec800094ec8000a20420009b
:10166000850078000400780007fc0700901da900a1
:10167000901da90034ee800054ee880034ee800006
:1016800034ec880034ee800044ec88000002eb006b
:10169000040078000080fa00000006000200fa0052
:1016a0000002eb00040f7800c4fb07001e02780064
:1016b000040078000080fa00000006002000fa0014
:1016c00084ec800061026200e00f520002003a00e8
:1016d0000082eb004c01370044ec8000840278006b
:1016e00034ec8000048252008402e80034ec800074
:1016f0000081eb0085007800040078007c01070081
:101700000002780054ec880054ec80004822de008f
:1017100064ec880055ec8000f40f20000482620025
:1017200074ec880044ec80000482e80014427800e5
:101730000482fb005407980044ec80000402e80097
:10174000144278000482fb006407980034ec8000a7
:101750000482e80034ec880064ec8000de02900033
:10176000848f52001c013a0074ec8000ee0290005d
:10177000848f520018013a0034ee80000402e80021
:10178000144278000482fb006123b90044fb2f005f
:10179000f5ff2f000602420087824a0076022000f1
:1017a00007002000860f5200878f5a0001013e007b
:1017b00004060100cb00370093003700fd0037001e
:1017c000fc003700fb003700fa003700f900370053
:1017d000f8003700f7003700f6003700f500370053
:1017e000f4003700f3003700f2003700f100370053
:1017f000f0003700ef003700ee003700ed00370053
:10180000ec003700eb003700ea003700e900370052
:10181000e8003700e7003700e6003700e500370052
:10182000e4003700e3003700e2003700e100370052
:10183000e0003700df00370006003700dd0037002a
:10184000dc003700db003700da003700d900370052
:101850009b00370034ec80007407980034ec800063
:101860006402420034ec88007e0290001402be0044
:10187000040278001407980034ec80009402780089
:101880003507980034ec80000482e80034ec8800ce
:101890000082eb0054ec8800b4c2b30004579800f7
:1018a00044c2b300145798000042eb00245798003c
:1018b00055ec8000700247000501780021002000ef
:1018c000040078000a0107000002780054ec880048
:1018d00054ec800004017800be0090001e009000cf
:1018e000030107000002780054ec880070024700f2
:1018f000040078006afb07000000000028fb0700d6
:1019000000427800e04f5200fcff3a000d00370023
:101910001e029000144278000482fb009e02900098
:101920008502e80015079800040078007dfb070099
:10193000000000001afb070000427800e04f520050
:10194000fcff3a003e02900004f0a7000402ea0007
:101950000402ea004f22de0004427800be0290003a
:101960008502e90035079800e04f5200e8ff3a0091
:1019700034c2b3000457980055ec80007002470051
:10198000050178001100200004007800d80007004d
:101990000002780054ec880054ec80000442780087
:1019a0001457980054ec80004822de00044278006e
:1019b000245798000002eb00440798000e003700ff
:1019c0004e029000700242006e427a000482fb00d8
:1019d0000400780053fb070000000000f0fa070045
:1019e00000427800e04f5200fcff3a004e029000a7
:1019f0000402e800440798004e029000e20f5200f3
:101a0000efff36007400370034ec80007407980054
:101a100034ec80006402420034ec88007e029000c6
:101a20001402be00040278002407980034ec800001
:101a3000940278003507980034ec80000482e800b6
:101a400034ec880034ec8000040f78000800370084
:101a50001e02780014427800ae029000844a78009a
:101a60002e0290000402e800240798001e0fe800f0
:101a70003e02900004f0a7000402ea000402ea001b
:101a80004f22de0004427800be0290008502e90089
:101a900035079800e04f5200edff3a00f43c280073
:101aa00004007800fefa070000000000bcfa0700fe
:101ab00000427800e04f5200fcff3a004600370039
:101ac000543c280004007800f5fa070000000000ec
:101ad000b3fa070000427800e04f5200fcff3a00e2
:101ae0003d0037000082eb0054ec8800b4c2b30024
:101af0000457980044c2b3001457980004c2b300be
:101b0000245798000042eb00345798000042eb0045
:101b10004457980004c1b3005457980034c2b3002e
:101b20006457980055ec800070024700050178006a
:101b300071002000040078006d00070000027800aa
:101b400054ec880054ec80000442780074579800ec
:101b500054ec80004822de0004427800045f9800c4
:101b60000002eb00440798000e0037004e02900080
:101b7000700242006e427a000482fb00040078008a
:101b8000e8fa07000000000085fa0700004278002c
:101b9000e04f5200fcff3a004e0290000402e800c1
:101ba000440798004e029000e80f5200efff360005
:101bb00009003700743d280004007800b8fa0700d7
:101bc0000000000076fa070000427800e04f520063
:101bd000fcff3a0000000000020220008000eb0041
:101be00060d62100ddfa0700901da90034ee8000c8
:101bf00054ee880034ee800034ec880034ee80002f
:101c000044ec88000002eb00040078000080fa0039
:101c1000000006003600f800809fbe00829fbe00d4
:101c2000849fbe00869fbe00881f78000000fa00d7
:101c300003c8a9000700370058ee8000aefa07007d
:101c40000002780004427800044c78000802e800a2
:101c500054ee880087fa070000427800e04f5200f7
:101c6000f5ff3a0054ee80006302520044ec880015
:101c700044ee80008402e90054ee8000848f52001c
:101c80000500310034ee800054ee880044ee800000
:101c90000402e90044ec880034ec800094427800af
:101ca00044c2b30084cf520007003a0044ec8000e5
:101cb0009442780034c2b30084cf520004003a004a
:101cc000901da8000200370034ee800054ee88001a
:101cd0000080fa004f0478004f03be004f02be00a0
:101ce0004f01be004f00be003600f9000040060064
:101cf0001000fa00500798006107980072079800da
:101d000014002a003407980084002000440798003b
:101d10000002eb001407980026003700beec880094
:101d20005e029000144278000482fb0024079800b1
:101d30005e0290000402e800540798000002eb00e5
:101d4000040f780014003700fe0290002e0290006d
:101d500004826a006102620004427800e04f52008f
:101d6000060032007e0290008402d1003e02900004
:101d700004826a0074079800030037007e02900016
:101d80000402d100740798002e0290000402d100d2
:101d9000240798001e0fe8004e0290009e02780073
:101da000848f5200e8ff39001e0290000402e80010
:101db000140798009e0290006e029000848f5200db
:101dc000d6ff39007e029000040078000080fa00ff
:101dd0000000060024e98000e5e880001301c0004f
:101de000f5e880001381c0000090cb000000cb001c
:101df00015e980001381c0000090cb000000cb00eb
:101e000044e9800035e980001381c0000000cb0068
:101e10000000cd0030e9880024e9800055e9800009
:101e20001301c00065e980001381c0000090cb0061
:101e30000000cb0085e980001381c0000090cb003a
:101e40000000cb0044e9800095e980001381c000c8
:101e50000000cb000000cd0090e9880000000600e3
:101e600030e98000a1e980000000ca000180ca00ba
:101e70000030cb000000cd00b0e9880090e9800080
:101e8000e1e980000000ca000180ca000030cb00f8
:101e90000000cd00f0e9880000000600c4e98000e1
:101ea000b5e98000d7e980001301c0000000cd0033
:101eb000110009000700d90010e9880000000600a1
:101ec000c4e98000f5e98000d7e980001301c00073
:101ed0000000cd00110009000700d90080e988004a
:101ee00000000600f0e880000000ca0014e980004d
:101ef00005ea80001381c0000000cb00f4e88000f8
:101f00001381c0000090cb000000cb000000cd008a
:101f1000f0e8880060e980000000ca0084e98000e1
:101f200005ea80001381c0000000cb0064e9800056
:101f30001381c0000090cb000000cb000000cd005a
:101f400060e9880000e980000000ca00f4e8800031
:101f500015ea80001381c0000000cb0004e9800076
:101f60001381c0000090cb000000cb000000cd002a
:101f700000e9880070e980000000ca0064e9800080
:101f800015ea80001381c0000000cb0074e98000d6
:101f90001381c0000090cb000000cb000000cd00fa
:101fa00070e988000000060060ea800054ea8000c2
:101fb00025ea80000000ca001381c0000000cb00a9
:101fc00064ea80001381c0000090cb000000cb00c9
:101fd0000000cd0060ea880000000600841f780041
:101fe000851f780000027800810278001301c0008c
:101ff0000000cd00cf0278004f02780000000600fc
:10200000821f780001017800110009000200d90048
:102010004f01780000000600800378000000eb000c
:102020001700e600000000000000000000000000b3
:10203000889fbe008781cf00e28051000139dd001a
:10204000000028008002510005027800c12add004e
:102050000600240006a3b90005a4b90000002f0063
:102060000981b900060341008783490005ccb90006
:10207000008020000981b9000603410087834900e0
:1020800005ccb90000b02f000981b900060341005a
:102090008783490005ccb900003820000981b900c8
:1020a000060341008783490005ccb90000d62f0004
:1020b0000981b900060341008783490005ccb900b6
:1020c000002120000981b9000603410087834900ef
:1020d00005ccb90030e52f000981b90006034100a5
:1020e000878349004f33de004138dd000003730071
:1020f000cfbbde000000280006034000e0834b0059
:102100004109de00700011000233de000038dd00fe
:102110000003730082bbde000100a300050039004c
:1021200024a8250004b0b9004f00de00c108dd007e
:1021300001037000060078004f04be000000060096
:020000040000fa
:10214000d41d000020000000820000000020e400f8
:1021500012fb090011058b0002460100a30051008b
:102160000029000014000a0000050000030001001f
:102170000001000000000000981d00002e0000007b
:1021800080000000661d000032000000800000009a
:10219000c61d00000e00000082000000661d8500c4
:1021a0001d661d002d2445000023000000000000d6
:1021b00000100000060d000080000000061d000059
:1021c00060000000820000004210620013821600ce
:1021d000a219c0001c000000000004000000000064
:1021e00000000000000000000000000000000000ef
:1021f00000000000000000000000000000000000df
:1022000000000000000000000000000000000000ce
:1022100000000000000000000000000000000000be
:1022200000000000000000000000000000000000ae
:10223000000000000000000000000000000000009e
:102240000000000000000000001e0000000100006f
:102250008200000000004800068c0c00c812f90043
:10226000181a1f0028251f002bfc3000ba36560014
:102270003cce41001d4740004c335100f5558200d3
:102280005ad75e00f262cf00666d6a00ca6de20046
:1022900070b5730041768400787d7a00297c8a00cd
:1022a0007d9d7e00627fd8007fff7f00d87f620027
:1022b0007f9d7e008a7d29007c7d7a0084784100a4
:1022c00076b57300e270ca006d6d6a00cf66f200e9
:1022d00062d75e00825af50055335100404c1d0014
:1022e00047ce4100563cba0036fc30001f2b280078
:1022f000251a1f00f918c800128c0c0048060000af
:1023000000b8f90074f33800ed07e700e6e0d80004
:10231000dae1d40004cf4600c9aac30032bee3000c
:10232000b8c0b300cdae0b00aa7ea50029a10e0057
:102330009d31990093953600921e8f004b8cbf0003
:10234000897c87008385d7008376820063819e0025
:102350008028800001802800809e800063817600b4
:1023600082d7830083857c0087bf89004b8c1e0049
:102370008f36920093953100990e9d0029a17e0021
:10238000a50baa00cdaec000b3e3b80032beaa00d0
:10239000c346c90004cfe100d4d8da00e6e0070064
:1023a000e738ed0074f3b800f90000000000000009
:020000040000fa
:1023b0000200fa00000f78004400f80044e0a80092
:1023c00044c0a8004480a80082fe0700a4fe0700c5
:1023d0001e027800540a900004007800daf8070022
:1023e000000278009e027800f50a9000850f5200e6
:1023f00002003d00a9fe07000e0037001e02780013
:10240000540a9000e00f5200050034001e027800cc
:10241000e40a90001e02780035029800050037009b
:102420001e027800640a90008402ea001e0278000e
:10243000350298001e027800141290000400780003
:10244000c1f80700000278009e027800f50a9000ab
:10245000850f520002003d0099fe07000e00370074
:102460001e02780014129000e00f520005003400a4
:102470001e027800e40a90001e027800250a9800e7
:10248000050037001e027800640a90008402ea000a
:102490001e027800250a980092fe07001e027800ae
:1024a000940a90001e027800240290000402ea00c0
:1024b00085007800040078005801070000027800c9
:1024c0009e027800e41298001e027800e412900048
:1024d000c4ea800084825200d4ea80000482420070
:1024e000d4ea88001e02780064129000c4ea8800d2
:1024f000e4ea80000402e800e4ea8800e4ea8000fc
:10250000f40f520007003a00d5ea80001e0278005e
:10251000751298000002eb00e4ea88000002eb006c
:10252000d4ea8800a0fe07001e027800041a90007a
:10253000b141210004007800a8fe070000027800e5
:102540009e027800b41298001e027800b412900027
:102550001e027800251298001e027800a412900036
:10256000c41a2000848f520006003c001e0278002e
:10257000d51a2000251298001e027800d51a2000d6
:10258000351298001e0278000500240055129800ac
:102590001e027800e41290001e027800541290008f
:1025a000848242001e027800651298004400f900ff
:1025b0000080fa00000006000200fa00000f780018
:1025c0001e02780095a52700650298001e0278007b
:1025d00075792000450298001e027800c5cc2600bf
:1025e000650a98001e027800450a2000750a9800c6
:1025f0001e027800d51a2000451298000080fa00cb
:1026000000000600448080005580800066808000c5
:102610000400e000190035000500e0000700350067
:102620008501780004017800450007007480880067
:102630008580880096808800280037000600e0002a
:102640000700350084017800060178003c0007008f
:102650007680880084808800958088001f0037007d
:102660008501ea000601ea00350007007580880050
:102670008480880096808800180037000500e000fc
:10268000100035000600e0000700350086017800e4
:10269000050178002a000700758088008680880080
:1026a000948088000d0037008601ea000401ea00ea
:1026b0002300070074808800868088009580880049
:1026c000060037008401ea000501ea001c0007004b
:1026d00076808800858088009480880074808000df
:1026e000656180008582d10015a0e60002003700f8
:1026f00035618800010037003461880084808000e3
:10270000656280008582d10015a0e60002003700d6
:1027100035628800010037003462880094808000b0
:10272000656380008582d10015a0e60002003700b5
:10273000356388000100370034638800000006001c
:102740000610d4000282b800050178000382b800a8
:10275000850178000690bf00820050008380500001
:102760008180d100010378008280400081027800de
:102770008380400001027800000006000200fa0099
:10278000881f7800000f7800e4ec80009e0f520054
:102790000300350034ed8000d4ec88002a003700b7
:1027a000e4ec80001e021200f1ff27000400780014
:1027b00013fe07000002780014ed880014ed80007d
:1027c0004ba2de0004ed880015ed8000f47f2000b0
:1027d000048262004422dd0024ed880004ed8000c4
:1027e000670242008402420084d921000482420030
:1027f0001404780025ed800004ed8000670242009b
:102800000403420084d92100040243001403780029
:1028100004ed80000402e8006702420084034200e5
:1028200084d921000482430014027800040253007a
:102830008500780004007800e8fd070000027800b9
:1028400004025400d4ec8800d4ec8000040078002a
:102850004f0478000080fa00000006000000fa0033
:1028600094992300e4ec88000002eb0034ed88002a
:10287000c4682f0044ed8800142b2f0054ed88000d
:10288000d4052f0064ed8800e4ad2e0074ed8800bf
:10289000f46c2e0084ed880084352e0094ed8800c1
:1028a000b4252e00a4ed8800340b2e00b4ed880072
:1028b00044f62d00c4ed8800d4d92d00d4ed880055
:1028c00074d12d00e4ed8800a4cb2d00f4ed880038
:1028d000d4c52d0004ee880004c02d0014ee88003d
:1028e00034ba2d0024ee88000080fa0000000600b3
:1028f0000000fa000002eb002470880034f9210087
:102900000470880034002000747088000002eb001e
:10291000a4708800f43f2000847088000002eb005f
:10292000f47088000002eb0024718800f4ff2b0093
:10293000047188000002eb00747188000002eb0053
:10294000a471880004102000847188000002eb004c
:10295000247288000400220004728800040022000f
:10296000747288000002eb00a47288000002eb0081
:10297000847288000002eb0024738800043c20006d
:1029800004738800153a8000f4fb2f000483620072
:10299000640420007505200027742000844b780013
:1029a000854b7800864b78003536800004f82f0080
:1029b000848262005403200004827200343688004e
:1029c00075348000f40f2c008482620004302000f3
:1029d0000482720074348800c535800004f82f002a
:1029e000848262000402200004827200c4358800e0
:1029f000153a80000404200004837200640420005f
:102a00007505200027742000844b7800854b7800e2
:102a1000864b78000080fa00000006000200fa00f1
:102a2000881f7800891f78004400f80008002800fb
:102a30000800e10002003a0000002c0029003700e5
:102a40000808e10002003a00f0ff270025003700e7
:102a50008e0478008003eb000100e0000a003b00d8
:102a6000810c78000000e000040034008000780051
:102a70001900ea0007002c00030037008000ea007c
:102a800019007800f7ff23008080ca008100ca0087
:102a900048dd2100f5ff2700090008000f000000b5
:102aa0001900cd000680cd000600e00006003300ce
:102ab0001201c4001903780012c1c4003802780062
:102ac00087031a00050037001241c400190378007b
:102ad0001281c40038027800870342008502d100c9
:102ae0000700ea004400f900cf0478004f047800a2
:102af0000080fa000000060020028000809fbe00d7
:102b00002702210000082000b70078000101b8006a
:102b10008381410005e021000200e00008003a0046
:102b200005824100941b78000344b00005824100f7
:102b3000940b78004f00be002002880000000600c1
:102b4000058241001403780083c1e800058241003a
:102b5000140013000090b800869b4000e343b000cf
:102b600005824100058241001403780083c1e8001a
:102b700005824100140013000090b800868b4000cd
:102b80004f00be00200288000000060011089800d7
:102b900000000600f0039000800a900005825300b8
:102ba0005080ca00c002780045018800a002900051
:102bb0001301c0007c00c8000000cb000600cc0060
:102bc000d00090000130e10004003c00e0009000e3
:102bd0000130e100010034008600780011089800ff
:102be000b00290001301c00001035300c002900026
:102bf0001241c4000000cb005000cc001501800041
:102c00000520780000000600749e240046818000a4
:102c10001301c100578180001201c2001201c200dd
:102c200046818000668188000700cc00778188009b
:102c300024818000358180001301c2001201c4008c
:102c4000030321003300cc001301c5001241c10071
:102c50001300cc0000000600201880001610b500fc
:102c600080027800a48080001301c0000400cc0022
:102c700044818800101880001a10b5008002780086
:102c8000c48080001301c0000400cc00548188007f
:102c900000000600b0808800d18088000000060097
:102ca000c4818000d58180004580880096ed260093
:102cb0008502ea008500ca001201c1000000cc00b4
:102cc000508088008500ca001241c1000000cc007d
:102cd0006080880000000600a6818000b781800027
:102ce00024818000358180001301c4001241c2009c
:102cf000830321003300cc001301c1001201c50081
:102d00001300cc00000006000002900005188000af
:102d10001301c0000400cc0014009800000006005d
:102d2000041880008482d100040024000482420040
:082d300004eb8800000006001e
:020000040000fa
:020000040005f5
:045fe000deff0000e0
:020000040000fa
:020000040005f5
:045fe400ffff0000bb
:020000040000fa
:020000040005f5
:045fe8007fff000037
:020000040000fa
:020000040005f5
:045fec007dff000035
:020000040000fa
:020000040005f5
:045ff00038ff000076
:020000040000fa
:020000040005f5
:045ff400cfff0000db
:00000001FF
